:100000000C9472000C9493000C9493000C94930045
:100010000C9493000C9493000C9493000C94930014
:100020000C9493000C9493000C9493000C94930004
:100030000C9493000C9493000C9493000C949300F4
:100040000C9493000C9493000C9493000C949300E4
:100050000C9493000C9493000C9493000C949300D4
:100060000C9493000C9493000C9493000C949300C4
:100070000C9493000C9493000C9493000C949300B4
:100080000C9493000C9493000C9493000C949300A4
:100090000C9493000C9493000C9493000C94930094
:1000A0000C9493000C9493000C9493000C94930084
:1000B0000C9493000C94C3000C9493000C94930044
:1000C0000C9493000C9493000C9493000C94930064
:1000D0000C9493000C9493000C9493000C94930054
:1000E0000C94930011241FBECFEFD1E2DEBFCDBF31
:1000F00000E00CBF12E0A0E0B2E0E4E1F2E000E0DA
:100100000BBF02C007900D92A030B107D9F712E0E3
:10011000A0E0B2E001C01D92A130B107E1F70E945A
:1001200005010C9408010C9400003B9A4398089533
:100130000E949500089586B1886088B9089586B1B7
:10014000877F88B90895E1EAF0E010828FE180931B
:10015000A50081E08093A4001092A9001092A8004D
:100160001092AB001092AA001092AD001092AC0059
:100170001092A7001092A6001092A0001092A20068
:1001800084E0808308951F920F920FB60F920BB6F2
:100190000F9211242F933F934F935F936F937F930D
:1001A0008F939F93AF93BF93EF93FF938FE18093D0
:1001B000A50081E08093A400809100028095809347
:1001C0000002882319F40E949B0002C00E949F0035
:1001D000FF91EF91BF91AF919F918F917F916F911F
:1001E0005F914F913F912F910F900BBE0F900FBEDB
:1001F0000F901F901895F8940E9498000E94A300F9
:1002000081E080937200789408950E94FB00FFCFF4
:04021000F894FFCF90
:00000001FF
