S022000031325F41646170746976655F4372756973655F436F6E74726F6C2E7372656308
S11300000C9472000C9486000C9486000C94860068
S11300100C9486000C9486000C9486000C94860044
S11300200C9486000C9486000C9486000C94860034
S11300300C9486000C9486000C9486000C94860024
S11300400C9486000C9486000C9486000C94860014
S11300500C9486000C9486000C9486000C94860004
S11300600C9486000C9486000C9486000C948600F4
S11300700C9486000C9486000C9486000C948600E4
S11300800C9486000C9486000C9486000C948600D4
S11300900C9486000C9486000C9486000C948600C4
S11300A00C9486000C9486000C9486000C948600B4
S11300B00C9486000C9486000C9486000C948600A4
S11300C00C9486000C9486000C9486000C94860094
S11300D00C9486000C9486000C9486000C94860084
S11300E00C94860011241FBECFEFD1E2DEBFCDBF3A
S11300F000E00CBF22E0A0E0B2E001C01D92AE30EF
S1130100B207E1F70E94E9020C941F030C9400006B
S113011086E69EE00197F1F700004098419880E35D
S113012088B9429AEFEFF7E43197F1F700C0000085
S11301304298E6E6FEE03197F1F7000040984198D6
S113014088B9429AEFEFF7E43197F1F700C0000065
S11301504298E6E6FEE03197F1F7000040984198B6
S113016088B9429A8FEF97E40197F1F700C0000035
S11301704298E6E6FEE03197F1F700004098419896
S113018080E288B9429A8FEF97E40197F1F700C0B3
S113019000004298089598B19F7098B998B1282F9B
S11301A0207F922B98B940984198429AEFEFF7E458
S11301B03197F1F700C00000429898B19F7098B948
S11301C098B18295807F892B88B940984198429A4A
S11301D08FEF97E40197F1F700C00000429808956B
S11301E00E94880086E69EE00197F1F7000088E20D
S11301F00E94CB0081E00E94CB0086E00E94CB00ED
S11302008EE00E94CB0080E80E94CB00089598B154
S11302109F7098B998B1282F207F922B98B9409A53
S11302204198429AEFEFF7E43197F1F700C00000EC
S1130230429898B19F7098B998B18295807F892B24
S113024088B9409A4198429A8FEF97E40197F1F761
S113025000C000004298089580E80E94CB000895F1
S1130260823071F018F48130C9F405C0833069F02C
S11302708430A1F40FC0862F81580E94CB000895CA
S1130280862F81540E94CB000895862F8D560E949C
S1130290CB000895862F8D520E94CB0008950F93B2
S11302A01F93CF93DF938A01E901882311F0611131
S11302B003C00E942C0102C00E943001C530D10548
S11302C009F0DBC09801329522952F7023273F70E7
S11302D02327A7E4B3E00E94130396958795969588
S11302E0879596958795C096909302028093010214
S11302F00E940701980136952795369527953695DE
S11303002795A5ECB0E20E941303AC0152954295E7
S11303104F7045275F7045275093040240930302B2
S11303209A01ADECBCEC0E941303969587959695C3
S11303308795969587959C01220F331F880F991FE7
S1130340880F991F880F991F820F931F481B590B01
S1130350CA01C09690930D0280930C020E9407017B
S113036004C0C330D10509F08DC098013695279596
S113037036952795ABE7B4E10E941303AC0156957B
S1130380479550930402409303029A01ADECBCECF0
S11303900E941303969587959695879596958795CC
S11303A09C01220F331F880F991F880F991F880FF4
S11303B0991F820F931F481B590BCA01C096909333
S11303C00902809308020E9407019801ADECBCEC7D
S11303D00E941303AC01569547955695479556953B
S11303E0479550930402409303029A010E94130319
S11303F09695879596958795969587959C01220F56
S1130400331F880F991F880F991F880F991F820F18
S1130410931F481B590BCA01C096909307028093FF
S113042006020E94070103C0C130D10501F59801FD
S1130430ADECBCEC0E941303969587959695879531
S1130440969587959C01220F331F880F991F880F5B
S1130450991F880F991F820F931F081B190BC8013E
S1130460C09690930B0280930A020E94070126977C
S11304706CF085E40E94070109C0C430D10509F07D
S113048070CF38CFC230D10579F69FCFDF91CF91AD
S11304901F910F91089587B1876F87B988B18078CC
S11304A088B9089510BA11BA109207011092080180
S11304B0089581B18F6081B982B1807F82B9EAE009
S11304C0F1E0808188618083EBE0F1E080818861E4
S11304D0808308953B9A439808950E944B020E949A
S11304E052020E9459020E946A020895E1E2F1E078
S11304F010828FEF8093250191E090932401109254
S113050029018093280110922B0180932A011092D3
S11305102D0180932C0189EA809320018BE0808354
S11305200895EAE7F0E0108210927B0080E2809365
S11305307C0080E880BF86E880830895883018F0C6
S113054098E090937B008770806280937C00EAE758
S1130550F0E0808180648083808184FFFDCF80917E
S11305607900EAE7F0E090819061908310927B003B
S11305700895CF93DF93C82FD62F842F0E949E0215
S1130580482F8093050223E030E050E06D2F8C2F3C
S11305900E944F01DF91CF910895809328016093C9
S11305A02A01089592B1907F8F70982B92B9089583
S11305B086E00E94D20208958AE00E94D202089541
S11305C0F8940E946D020E9491020E94760278942F
S11305D008950E94E0020E9488000E94F0008BE0CF
S11305E00E949E02809300024BE064E082E00E943D
S11305F0B90280910002833578F064EB84EB0E94A9
S1130600CD020E94DC022FEF8FE396E2215080405E
S11306109040E1F700C000000E94D80268EC88EC2A
S11306200E94CD02DCCFA29FB001B39FC001A39F63
S113063001D0B29F700D811D1124911D0895F8946D
S1050640FFCFE6
S9030000FC
