:100000000C9472000C9493000C9493000C94930045
:100010000C9493000C9493000C9493000C94930014
:100020000C9493000C9493000C9493000C94930004
:100030000C9493000C9493000C9493000C949300F4
:100040000C9493000C9493000C9493000C949300E4
:100050000C9493000C9493000C9493000C949300D4
:100060000C9493000C9493000C9493000C949300C4
:100070000C9493000C9493000C9493000C949300B4
:100080000C9493000C9493000C9493000C949300A4
:100090000C9493000C9493000C9493000C94930094
:1000A0000C9493000C9493000C9493000C94930084
:1000B0000C9493000C9493000C9493000C94930074
:1000C0000C9493000C9493000C9493000C94930064
:1000D0000C9493000C9493000C9493000C94930054
:1000E0000C94930011241FBECFEFD1E2DEBFCDBF31
:1000F00000E00CBF12E0A0E0B2E0E8E6F4E000E0CF
:100100000BBF02C007900D92AE31B107D9F712E0D4
:10011000AEE1B2E001C01D92AA32B107E1F70E9440
:1001200005020C9432020C94000087B1876F87B9E6
:1001300088B1807888B908950E949500089586E670
:100140009EE00197F1F700004098419880E388B95C
:10015000429AEFEFF7E43197F1F700C000004298C0
:10016000E6E6FEE03197F1F700004098419888B943
:10017000429AEFEFF7E43197F1F700C000004298A0
:10018000E6E6FEE03197F1F700004098419888B923
:10019000429A8FEF97E40197F1F700C00000429870
:1001A000E6E6FEE03197F1F700004098419880E2E2
:1001B00088B9429A86E69EE00197F1F700004298DE
:1001C000089598B19F7098B998B1282F207F922BED
:1001D00098B940984198429AEFEFF7E43197F1F7D8
:1001E00000C00000429898B19F7098B998B182956C
:1001F000807F892B88B940984198429A8FEF97E485
:100200000197F1F700C000004298089586E69EE04D
:100210000197F1F7000088E20E94E10081E00E946E
:10022000E10086E00E94E1008EE00E94E10080E8AB
:100230000E94E100089598B19F7098B998B1282F55
:10024000207F922B98B9409A4198429AEFEFF7E4B9
:100250003197F1F700C00000429898B19F7098B9AB
:1002600098B18295807F892B88B9409A4198429AAB
:100270008FEF97E40197F1F700C0000042980895CE
:1002800080E80E94E1000895CF93DF93EC0188811C
:10029000882331F021960E941B0189918823D9F788
:1002A000DF91CF910895823079F0833018F4813056
:1002B000C9F405C0833069F08430A1F40FC0862FE3
:1002C00081580E94E1000895862F81540E94E10028
:1002D0000895862F8D560E94E1000895862F8D5235
:1002E0000E94E10008950F931F93CF93DF938A013B
:1002F000E901882311F0662319F40E94400102C02D
:100300000E945301C530D10571F4C80160E177E264
:100310000E941E02CB01C09690931F0280931E0282
:100320000E941B0103C0C430D105B9F4C80168EEB6
:1003300073E00E941E02CB017093210260932002A1
:100340006AE070E00E941E02C0969093290280939A
:1003500028020E941B0181E001C080E0C330D1056A
:1003600011F08130B1F4C80164E670E00E941E0211
:10037000CB0170932102609320026AE070E00E943A
:100380001E02C09690932502809324020E941B01B6
:1003900081E0C230D10511F08130B1F42AE030E0C3
:1003A000C801B9010E941E02CB0170932102609323
:1003B0002002B9010E941E02C096909323028093EE
:1003C00022020E941B0181E0C130D10511F0813071
:1003D00061F4C8016AE070E00E941E02C09690932A
:1003E0002702809326020E941B01C630D1051CF013
:1003F00085E40E941B01DF91CF911F910F91089519
:10040000F8940E949C00789408950E9400020E9433
:100410009F000E940601C0E0D2E00CE012E081E003
:1004200063E00E945301CE010E94440182E061E03A
:100430000E945301C8010E944401F1CFAA1BBB1BBB
:1004400051E107C0AA1FBB1FA617B70710F0A61BD4
:10045000B70B881F991F5A95A9F780959095BC01F5
:08046000CD010895F894FFCFCF
:100468004649524520424952442035004E455820BD
:0E047800524F424F5449435320494E44000016
:00000001FF
