:100000000C9472000C9493000C9493000C94930045
:100010000C9493000C9493000C9493000C94930014
:100020000C9493000C9493000C9493000C94930004
:100030000C9493000C9493000C9493000C949300F4
:100040000C9493000C9493000C9493000C949300E4
:100050000C9493000C9493000C9493000C949300D4
:100060000C9493000C9493000C9493000C949300C4
:100070000C9493000C9493000C9493000C949300B4
:100080000C9493000C9493000C9493000C949300A4
:100090000C94C6000C9493000C9493000C94930061
:1000A0000C9493000C9493000C9493000C94930084
:1000B0000C9493000C9493000C9493000C94930074
:1000C0000C9493000C9493000C9493000C94930064
:1000D0000C9493000C9493000C9493000C94930054
:1000E0000C94930011241FBECFEFD1E2DEBFCDBF31
:1000F00000E00CBF12E0A0E0B2E0EAE4F2E000E0D1
:100100000BBF02C007900D92A030B107D9F712E0E3
:10011000A0E0B2E001C01D92A130B107E1F70E945A
:1001200020010C9423010C9400003B9A43980895FD
:1001300081B18F6081B982B1807F82B9EAE0F1E05C
:10014000808188618083EBE0F1E080818861808339
:1001500008950E9498000E949500089586B18860D5
:1001600088B9089586B1877F88B90895E9ECF0E0F1
:1001700010821092C80086E08093CA008FE58093B9
:10018000CC001092CD0088E9808308951F920F92D1
:100190000FB60F920BB60F9211242F933F934F93EC
:1001A0005F936F937F938F939F93AF93BF93EF93DF
:1001B000FF93EEECF0E0808180930002808388332F
:1001C00011F486E082B980910002823311F489E053
:1001D00082B980910002843311F485E082B9809164
:1001E0000002863311F48AE082B9809100028533DF
:1001F00009F412B880910002873311F40E94AE0016
:1002000080910002893311F40E94B200FF91EF91B6
:10021000BF91AF919F918F917F916F915F914F911E
:100220003F912F910F900BBE0F900FBE0F901F901C
:100230001895F8940E94A9000E94B6007894089539
:0A0240000E941901FFCFF894FFCFD0
:00000001FF
