:100000000C9472000C9493000C9493000C94930045
:100010000C9493000C9493000C9493000C94930014
:100020000C9493000C9493000C9493000C94930004
:100030000C9493000C9493000C9493000C949300F4
:100040000C9493000C9493000C9493000C949300E4
:100050000C9493000C9493000C9493000C949300D4
:100060000C9493000C9493000C9493000C949300C4
:100070000C9493000C9493000C9493000C949300B4
:100080000C9493000C9493000C9493000C949300A4
:100090000C9493000C9493000C9493000C94930094
:1000A0000C9493000C9493000C9493000C94930084
:1000B0000C9493000C9493000C9493000C94930074
:1000C0000C9493000C9493000C9493000C94930064
:1000D0000C9493000C9493000C9493000C94930054
:1000E0000C94930011241FBECFEFD1E2DEBFCDBF31
:1000F00000E00CBF12E0A0E0B2E0ECE2F2E000E0D1
:100100000BBF02C007900D92A030B107D9F712E0E3
:10011000A0E0B2E001C01D92A030B107E1F70E945B
:10012000D4000C9414010C940000E1E0F1E0808113
:100130008C608083E2E0F1E08081837F80839A9A03
:10014000A29808950E9495000895A2980895A29AF1
:100150000895E2E0F1E080818B7F80830895E2E002
:10016000F1E08081846080830895E2E0F1E08081A5
:10017000877F80830895E2E0F1E08081886080835A
:100180000895E2E0F1E08081837F8083A298089562
:10019000E2E0F1E080818C608083A29A0895F89477
:1001A0000E94A200789408950E94CF000E94C80087
:1001B0008FEF9FE7A3E481509040A040E1F700C09B
:1001C00000000E94A5008FEF9FE7A3E481509040BC
:1001D000A040E1F700C000000E94A7000E94A90013
:1001E0008FEF9FE7A3E481509040A040E1F700C06B
:1001F00000000E94AF000E94B5008FEF9FE7A3E4CC
:1002000081509040A040E1F700C000000E94BB0078
:100210008FEF9FE7A3E481509040A040E1F700C03A
:0C02200000000E94C100FFCFF894FFCF47
:00000001FF
