:100000000C9472000C9493000C9493000C94930045
:100010000C9493000C9493000C9493000C94930014
:100020000C9493000C9493000C9493000C94930004
:100030000C9493000C9493000C9493000C949300F4
:100040000C9493000C9493000C9493000C949300E4
:100050000C9493000C9493000C9493000C949300D4
:100060000C9493000C9493000C9493000C949300C4
:100070000C9493000C9493000C9493000C949300B4
:100080000C9493000C9493000C9493000C949300A4
:100090000C9493000C9493000C9493000C94930094
:1000A0000C9493000C9493000C9493000C94930084
:1000B0000C9493000C9493000C9493000C94930074
:1000C0000C9493000C9493000C9493000C94930064
:1000D0000C9493000C9493000C9493000C94930054
:1000E0000C94930011241FBECFEFD1E2DEBFCDBF31
:1000F00000E00CBF12E0A0E0B2E0E6E1F5E000E0D5
:100100000BBF02C007900D92AE30B107D9F712E0D5
:10011000AEE0B2E001C01D92AD31B107E1F70E943F
:100120002A020C9489020C94000086E69EE0019756
:10013000F1F700004098419880E388B9429AEFEFC8
:10014000F7E43197F1F700C000004298E6E6FEE0E0
:100150003197F1F700004098419888B9429AEFEF43
:10016000F7E43197F1F700C000004298E6E6FEE0C0
:100170003197F1F700004098419888B9429A8FEF83
:1001800097E40197F1F700C000004298E6E6FEE030
:100190003197F1F700004098419880E288B9429A7F
:1001A0008FEF97E40197F1F700C00000429808959F
:1001B00098B19F7098B998B1282F207F922B98B949
:1001C00040984198429AEFEFF7E43197F1F700C079
:1001D0000000429898B19F7098B998B18295807F3D
:1001E000892B88B940984198429A8FEF97E40197FC
:1001F000F1F700C00000429808950E94950086E63D
:100200009EE00197F1F7000088E20E94D80081E0AB
:100210000E94D80086E00E94D8008EE00E94D8009C
:1002200080E80E94D800089598B19F7098B998B15D
:10023000282F207F922B98B9409A4198429AEFEF4D
:10024000F7E43197F1F700C00000429898B19F7031
:1002500098B998B18295807F892B88B9409A419846
:10026000429A8FEF97E40197F1F700C0000042989F
:10027000089580E80E94D8000895CF93DF93EC01A1
:100280008881882331F021960E9414018991882366
:10029000D9F7DF91CF910895823079F0833018F447
:1002A0008130C9F405C0833069F08430A1F40FC0F7
:1002B000862F81580E94D8000895862F81540E946D
:1002C000D8000895862F8D560E94D8000895862F55
:1002D0008D520E94D80008950F931F93CF93DF9300
:1002E0008A01E901882311F0662319F40E9439017B
:1002F00002C00E944C01C530D10571F4C80160E113
:1003000077E20E947502CB01C09690930F02809312
:100310000E020E94140103C0C430D105B9F4C80113
:1003200068EE73E00E947502CB0170931102609336
:1003300010026AE070E00E947502C09690931C0261
:1003400080931B020E94140181E001C080E0C33051
:10035000D10511F08130B1F4C80164E670E00E946B
:100360007502CB0170931102609310026AE070E095
:100370000E947502C09690931502809314020E9409
:10038000140181E0C230D10511F08130B1F42AE0CE
:1003900030E0C801B9010E947502CB0170931102CF
:1003A00060931002B9010E947502C09690931302E7
:1003B000809312020E94140181E0C130D10511F036
:1003C000813061F4C8016AE070E00E947502C09655
:1003D00090931A02809319020E941401C630D1052D
:1003E0001CF085E40E941401DF91CF911F910F91C1
:1003F000089584B1876084B985B1876085B908950F
:1004000087B1876F87B988B1807888B908950E94CD
:10041000F9010E940002089583E58CBD1DBC1EBC3D
:10042000089528988EBD0DB407FEFDCF86E69EE0A8
:100430000197F1F7000080E58EBD0DB407FEFDCFFA
:100440008EB5289A0895F8940E9407020E940C0223
:10045000789408950E9423020E9495000E94FD0056
:10046000C6E1D2E08E010F5F1F4FEE24FF24689497
:10047000E1F8EC0EFD1E0F2EF0E0CF2EF2E0DF2EA5
:10048000F02D85E00E941102888386E00E9411020F
:10049000F801808387E00E941102F70180838FEFCB
:1004A0009FE80197F1F700C000000E943901C601E2
:1004B0000E943D01488182E061E050E023E030E0AD
:1004C0000E946C01F801408182E066E050E023E088
:1004D00030E00E946C01F701408182E06BE050E067
:1004E00023E030E00E946C01CCCFAA1BBB1B51E182
:1004F00007C0AA1FBB1FA617B70710F0A61BB70B94
:10050000881F991F5A95A9F780959095BC01CD0138
:060510000895F894FFCFEE
:0E0516004952362020495237202049523800E1
:00000001FF
