:100000000C9472000C9493000C9493000C94930045
:100010000C9493000C9493000C9493000C94930014
:100020000C9493000C9493000C9493000C94930004
:100030000C9493000C9493000C9493000C949300F4
:100040000C9493000C9493000C9493000C949300E4
:100050000C9493000C9493000C9493000C949300D4
:100060000C9493000C9493000C9493000C949300C4
:100070000C9493000C9493000C9493000C949300B4
:100080000C9493000C9493000C9493000C949300A4
:100090000C9493000C9493000C9493000C94930094
:1000A0000C9493000C9493000C9493000C94930084
:1000B0000C9493000C9493000C9493000C94930074
:1000C0000C9493000C9493000C9493000C94930064
:1000D0000C9493000C9493000C9493000C94930054
:1000E0000C94930011241FBECFEFD1E2DEBFCDBF31
:1000F00000E00CBF12E0A0E0B2E0E6E2F6E000E0D3
:100100000BBF02C007900D92A030B107D9F712E0E3
:10011000A0E0B2E001C01D92A131B107E1F70E9459
:1001200092020C9411030C94000086E69EE0019765
:10013000F1F700004098419880E388B9429AEFEFC8
:10014000F7E43197F1F700C000004298E6E6FEE0E0
:100150003197F1F700004098419888B9429AEFEF43
:10016000F7E43197F1F700C000004298E6E6FEE0C0
:100170003197F1F700004098419888B9429A8FEF83
:1001800097E40197F1F700C000004298E6E6FEE030
:100190003197F1F700004098419880E288B9429A7F
:1001A0008FEF97E40197F1F700C00000429808959F
:1001B00098B19F7098B998B1282F207F922B98B949
:1001C00040984198429AEFEFF7E43197F1F700C079
:1001D0000000429898B19F7098B998B18295807F3D
:1001E000892B88B940984198429A8FEF97E40197FC
:1001F000F1F700C00000429808950E94950086E63D
:100200009EE00197F1F7000088E20E94D80081E0AB
:100210000E94D80086E00E94D8008EE00E94D8009C
:1002200080E80E94D800089598B19F7098B998B15D
:10023000282F207F922B98B9409A4198429AEFEF4D
:10024000F7E43197F1F700C00000429898B19F7031
:1002500098B998B18295807F892B88B9409A419846
:10026000429A8FEF97E40197F1F700C0000042989F
:10027000089580E80E94D8000895CF93DF93EC01A1
:100280008881882331F021960E9414018991882366
:10029000D9F7DF91CF910895823079F0833018F447
:1002A0008130C9F405C0833069F08430A1F40FC0F7
:1002B000862F81580E94D8000895862F81540E946D
:1002C000D8000895862F8D560E94D8000895862F55
:1002D0008D520E94D80008950F931F93CF93DF9300
:1002E0008A01E901882311F0662319F40E9439017B
:1002F00002C00E944C01C530D10571F4C80160E113
:1003000077E20E94FD02CB01C09690930502809394
:1003100004020E94140103C0C430D105B9F4C8011D
:1003200068EE73E00E94FD02CB01709307026093B8
:1003300006026AE070E00E94FD02C09690931002EF
:1003400080930F020E94140181E001C080E0C3305D
:10035000D10511F08130B1F4C80164E670E00E946B
:10036000FD02CB0170930702609306026AE070E021
:100370000E94FD02C09690930C0280930B020E9493
:10038000140181E0C230D10511F08130B1F42AE0CE
:1003900030E0C801B9010E94FD02CB017093070251
:1003A00060930602B9010E94FD02C09690930A0272
:1003B000809309020E94140181E0C130D10511F03F
:1003C000813061F4C8016AE070E00E94FD02C096CD
:1003D00090930E0280930D020E941401C630D10545
:1003E0001CF085E40E941401DF91CF911F910F91C1
:1003F000089587B1876F87B988B1807888B90895E3
:1004000010BA11BA1092070110920801089581B133
:100410008F6081B982B1807F82B9EAE0F1E08081AA
:1004200088618083EBE0F1E08081886180830895BA
:100430000E94F9010E9400020E9407020895E1E271
:10044000F1E010828FEF8093250191E090932401D9
:10045000109229018093280110922B0180932A0188
:1004600010922D0180932C0189EA809320018BE06A
:1004700080830895EAE7F0E0108210927B0080E22A
:1004800080937C0080E880BF86E880830895883070
:1004900018F098E090937B008770806280937C00D6
:1004A000EAE7F0E0808180648083808184FFFDCF73
:1004B00080917900EAE7F0E090819061908310925A
:1004C0007B000895CF93DF93D82FC62F842F0E94EF
:1004D0004702482F809308028D2F6C2F50E023E0B5
:1004E00030E00E946C01DF91CF9108958093280144
:1004F00060932A01089592B1907F8F70982B92B9E2
:10050000089586E00E947B02089580E00E947B02AD
:100510000895F8940E9418020E943A020E941F0255
:10052000789408950E9489020E9495000E94FD001F
:1005300083E00E9447028093020282E00E94470209
:100540008093010281E00E94470280930002109292
:10055000030281E061E043E00E94620281E065E025
:1005600042E00E94620281E069E041E00E94620292
:1005700080910102803148F481E0809303020E945F
:10058000810284E664E60E94760280910202813153
:1005900068F080910302882349F481E0809303028C
:1005A0000E94810282E862E30E947602809100024A
:1005B000813168F080910302882349F481E08093BF
:1005C00003020E94810282E362E80E947602809127
:1005D0000102813108F4ACCF80910202813108F42C
:1005E000A7CF80910002813108F4A2CF0E9481023E
:1005F00080E060E00E9476029BCFAA1BBB1B51E10A
:1006000007C0AA1FBB1FA617B70710F0A61BB70B82
:10061000881F991F5A95A9F780959095BC01CD0127
:060620000895F894FFCFDD
:00000001FF
