:1000000012C02CC02BC02AC029C028C027C026C0BF
:1000100025C024C023C022C021C020C01FC01EC0D4
:100020001DC01CC01BC011241FBECFE5D4E0DEBF25
:10003000CDBF10E0A0E6B0E0E6ECF0E002C0059035
:100040000D92A036B107D9F710E0A0E6B0E001C0EC
:100050001D92A236B107E1F727D033C0D1CF80E19E
:1000600088BB87BB8FE385BB14BA12BA8FEF81BB05
:10007000089581E48DB91EB81FB8089516B817B851
:1000800080E888B985EC86B908958770806287B961
:10009000369A349BFECF85B1349A0895F894DFDF09
:1000A000E8DFECDF78940895F9DF779BFECF8FB11E
:1000B00080936100EADF809360008FB9779BFECF69
:0600C000F4CFF894FFCF1D
:00000001FF
